{
    "contractName": "ETHPool",
    "abi": [
        {
            "inputs": [],
            "stateMutability": "nonpayable",
            "type": "constructor"
        },
        {
            "inputs": [],
            "name": "claimable_rewards",
            "outputs": [
                {
                    "internalType": "uint256",
                    "name": "",
                    "type": "uint256"
                }
            ],
            "stateMutability": "view",
            "type": "function"
        },
        {
            "inputs": [],
            "name": "contract_balance",
            "outputs": [
                {
                    "internalType": "uint256",
                    "name": "",
                    "type": "uint256"
                }
            ],
            "stateMutability": "view",
            "type": "function"
        },
        {
            "inputs": [],
            "name": "deposit_rewards",
            "outputs": [],
            "stateMutability": "payable",
            "type": "function"
        },
        {
            "inputs": [],
            "name": "rewards_timestamp",
            "outputs": [
                {
                    "internalType": "uint256",
                    "name": "",
                    "type": "uint256"
                }
            ],
            "stateMutability": "view",
            "type": "function"
        },
        {
            "inputs": [
                {
                    "internalType": "address",
                    "name": "",
                    "type": "address"
                }
            ],
            "name": "team_members",
            "outputs": [
                {
                    "internalType": "bool",
                    "name": "",
                    "type": "bool"
                }
            ],
            "stateMutability": "view",
            "type": "function"
        },
        {
            "inputs": [],
            "name": "total_pool",
            "outputs": [
                {
                    "internalType": "uint256",
                    "name": "",
                    "type": "uint256"
                }
            ],
            "stateMutability": "view",
            "type": "function"
        },
        {
            "inputs": [
                {
                    "internalType": "address",
                    "name": "member_address",
                    "type": "address"
                },
                {
                    "internalType": "bool",
                    "name": "is_allowed",
                    "type": "bool"
                }
            ],
            "name": "update_team",
            "outputs": [],
            "stateMutability": "nonpayable",
            "type": "function"
        },
        {
            "inputs": [],
            "name": "user_deposit",
            "outputs": [],
            "stateMutability": "payable",
            "type": "function"
        },
        {
            "inputs": [],
            "name": "withdraw",
            "outputs": [],
            "stateMutability": "nonpayable",
            "type": "function"
        }
    ],
    "bytecode": "608060405234801561001057600080fd5b50600280546001600160a01b03191633179055610766806100326000396000f3fe6080604052600436106100865760003560e01c8063637d89d411610059578063637d89d4146100fa5780638611137914610102578063926820f814610118578063cdea68581461012e578063d519a8f71461013657600080fd5b8063057440d31461008b57806309366937146100ad5780633ccfd60b146100c35780634b733fe9146100da575b600080fd5b34801561009757600080fd5b50475b6040519081526020015b60405180910390f35b3480156100b957600080fd5b5061009a60055481565b3480156100cf57600080fd5b506100d8610176565b005b3480156100e657600080fd5b506100d86100f536600461061b565b610409565b6100d86104a0565b34801561010e57600080fd5b5061009a60045481565b34801561012457600080fd5b5061009a60065481565b6100d8610503565b34801561014257600080fd5b50610166610151366004610657565b60006020819052908152604090205460ff1681565b60405190151581526020016100a4565b336000908152600760205260409020546101e35760405162461bcd60e51b8152602060048201526024808201527f596f752068617665206e6f206465706f73697473206f6e20796f75722062656860448201526330b6331760e11b60648201526084015b60405180910390fd5b60008060005b336000908152600760205260409020548110156102cf5760055433600090815260076020526040902080548390811061022457610224610679565b906000526020600020906002020160010154101561027d5733600090815260076020526040902080548290811061025d5761025d610679565b9060005260206000209060020201600001548361027a91906106a5565b92505b33600090815260076020526040902080548290811061029e5761029e610679565b906000526020600020906002020160000154826102bb91906106a5565b9150806102c7816106bd565b9150506101e9565b506003546000906102e18460646106d8565b6102eb91906106f7565b905060008160646001546102ff91906106f7565b61030991906106d8565b61031390846106a5565b604051909150600090339083908381818185875af1925050503d8060008114610358576040519150601f19603f3d011682016040523d82523d6000602084013e61035d565b606091505b50509050806103a15760405162461bcd60e51b815260206004820152601060248201526f2a3930b739b332b9103330b4b632b21760811b60448201526064016101da565b8260646001546103b191906106f7565b6103bb91906106d8565b600660008282546103cc9190610719565b9250508190555083600460008282546103e59190610719565b9091555050336000908152600760205260408120610402916105bc565b5050505050565b6002546001600160a01b031633146104755760405162461bcd60e51b815260206004820152602960248201527f46756e6374696f6e206f6e6c792063616c6c61626c6520627920636f6e74726160448201526831ba1030b236b4b71760b91b60648201526084016101da565b6001600160a01b03919091166000908152602081905260409020805460ff1916911515919091179055565b3360009081526007602090815260408083208151808301909252348083524283850190815282546001818101855593875294862093516002909502909301938455915192019190915560048054919290916104fc9084906106a5565b9091555050565b3360009081526020819052604090205460ff1615156001146105805760405162461bcd60e51b815260206004820152603060248201527f4f6e6c79207465616d206d656d626572732061726520616c6c6f77656420746f60448201526f206465706f736974207265776172647360801b60648201526084016101da565b346001600082825461059291906106a5565b9250508190555034600660008282546105ab91906106a5565b909155505042600555600454600355565b50805460008255600202906000526020600020908101906105dd91906105e0565b50565b5b808211156105fb57600080825560018201556002016105e1565b5090565b80356001600160a01b038116811461061657600080fd5b919050565b6000806040838503121561062e57600080fd5b610637836105ff565b91506020830135801515811461064c57600080fd5b809150509250929050565b60006020828403121561066957600080fd5b610672826105ff565b9392505050565b634e487b7160e01b600052603260045260246000fd5b634e487b7160e01b600052601160045260246000fd5b600082198211156106b8576106b861068f565b500190565b60006000198214156106d1576106d161068f565b5060010190565b60008160001904831182151516156106f2576106f261068f565b500290565b60008261071457634e487b7160e01b600052601260045260246000fd5b500490565b60008282101561072b5761072b61068f565b50039056fea26469706673582212200b7410bb5ee06cd3e857e446ee73e50ab7ad7c739b8e03552521544a6b933fe564736f6c634300080b0033",
    "sourcePath": "c:/Users/Mateo Molinari/Documents/projects/challenge/contracts/ehtpool.sol",
    "compiler": {
        "name": "solc",
        "version": "0.8.11+commit.d7f03943"
    },
    "functionHashes": {
        "claimable_rewards()": "926820f8",
        "contract_balance()": "057440d3",
        "deposit_rewards()": "cdea6858",
        "rewards_timestamp()": "09366937",
        "team_members(address)": "d519a8f7",
        "total_pool()": "86111379",
        "update_team(address,bool)": "4b733fe9",
        "user_deposit()": "637d89d4",
        "withdraw()": "3ccfd60b"
    },
    "gasEstimates": {
        "creation": {
            "codeDepositCost": "378800",
            "executionCost": "24653",
            "totalCost": "403453"
        },
        "external": {
            "claimable_rewards()": "2328",
            "contract_balance()": "173",
            "deposit_rewards()": "infinite",
            "rewards_timestamp()": "2307",
            "team_members(address)": "2622",
            "total_pool()": "2306",
            "update_team(address,bool)": "26904",
            "user_deposit()": "93090",
            "withdraw()": "infinite"
        }
    }
}