{
  "_format": "hh-sol-artifact-1",
  "contractName": "ETHPool",
  "sourceName": "contracts/ehtpool.sol",
  "abi": [
    {
      "inputs": [],
      "stateMutability": "nonpayable",
      "type": "constructor"
    },
    {
      "inputs": [
        {
          "internalType": "uint256",
          "name": "prod1",
          "type": "uint256"
        }
      ],
      "name": "PRBMath__MulDivFixedPointOverflow",
      "type": "error"
    },
    {
      "inputs": [
        {
          "internalType": "uint256",
          "name": "prod1",
          "type": "uint256"
        },
        {
          "internalType": "uint256",
          "name": "denominator",
          "type": "uint256"
        }
      ],
      "name": "PRBMath__MulDivOverflow",
      "type": "error"
    },
    {
      "inputs": [],
      "name": "claimable_rewards",
      "outputs": [
        {
          "internalType": "uint256",
          "name": "",
          "type": "uint256"
        }
      ],
      "stateMutability": "view",
      "type": "function"
    },
    {
      "inputs": [],
      "name": "contract_balance",
      "outputs": [
        {
          "internalType": "uint256",
          "name": "",
          "type": "uint256"
        }
      ],
      "stateMutability": "view",
      "type": "function"
    },
    {
      "inputs": [],
      "name": "deposit_rewards",
      "outputs": [],
      "stateMutability": "payable",
      "type": "function"
    },
    {
      "inputs": [],
      "name": "rewards_timestamp",
      "outputs": [
        {
          "internalType": "uint256",
          "name": "",
          "type": "uint256"
        }
      ],
      "stateMutability": "view",
      "type": "function"
    },
    {
      "inputs": [
        {
          "internalType": "address",
          "name": "",
          "type": "address"
        }
      ],
      "name": "team_members",
      "outputs": [
        {
          "internalType": "bool",
          "name": "",
          "type": "bool"
        }
      ],
      "stateMutability": "view",
      "type": "function"
    },
    {
      "inputs": [],
      "name": "total_pool",
      "outputs": [
        {
          "internalType": "uint256",
          "name": "",
          "type": "uint256"
        }
      ],
      "stateMutability": "view",
      "type": "function"
    },
    {
      "inputs": [
        {
          "internalType": "address",
          "name": "member_address",
          "type": "address"
        },
        {
          "internalType": "bool",
          "name": "is_allowed",
          "type": "bool"
        }
      ],
      "name": "update_team",
      "outputs": [],
      "stateMutability": "nonpayable",
      "type": "function"
    },
    {
      "inputs": [],
      "name": "user_deposit",
      "outputs": [],
      "stateMutability": "payable",
      "type": "function"
    },
    {
      "inputs": [],
      "name": "withdraw",
      "outputs": [],
      "stateMutability": "nonpayable",
      "type": "function"
    }
  ],
  "bytecode": "0x608060405234801561001057600080fd5b5033600260006101000a81548173ffffffffffffffffffffffffffffffffffffffff021916908373ffffffffffffffffffffffffffffffffffffffff1602179055506110ab806100616000396000f3fe6080604052600436106100865760003560e01c8063637d89d411610059578063637d89d414610121578063861113791461012b578063926820f814610156578063cdea685814610181578063d519a8f71461018b57610086565b8063057440d31461008b57806309366937146100b65780633ccfd60b146100e15780634b733fe9146100f8575b600080fd5b34801561009757600080fd5b506100a06101c8565b6040516100ad9190610d84565b60405180910390f35b3480156100c257600080fd5b506100cb6101d0565b6040516100d89190610d84565b60405180910390f35b3480156100ed57600080fd5b506100f66101d6565b005b34801561010457600080fd5b5061011f600480360381019061011a9190610bcb565b610602565b005b6101296106ec565b005b34801561013757600080fd5b5061014061079a565b60405161014d9190610d84565b60405180910390f35b34801561016257600080fd5b5061016b6107a0565b6040516101789190610d84565b60405180910390f35b6101896107a6565b005b34801561019757600080fd5b506101b260048036038101906101ad9190610ba2565b61087c565b6040516101bf9190610ce9565b60405180910390f35b600047905090565b60055481565b6000600760003373ffffffffffffffffffffffffffffffffffffffff1673ffffffffffffffffffffffffffffffffffffffff168152602001908152602001600020805490501161025b576040517f08c379a000000000000000000000000000000000000000000000000000000000815260040161025290610d24565b60405180910390fd5b60008060005b600760003373ffffffffffffffffffffffffffffffffffffffff1673ffffffffffffffffffffffffffffffffffffffff1681526020019081526020016000208054905081101561047d57600554600760003373ffffffffffffffffffffffffffffffffffffffff1673ffffffffffffffffffffffffffffffffffffffff1681526020019081526020016000208281548110610325577f4e487b7100000000000000000000000000000000000000000000000000000000600052603260045260246000fd5b90600052602060002090600202016001015410156103d457600760003373ffffffffffffffffffffffffffffffffffffffff1673ffffffffffffffffffffffffffffffffffffffff16815260200190815260200160002081815481106103b4577f4e487b7100000000000000000000000000000000000000000000000000000000600052603260045260246000fd5b906000526020600020906002020160000154836103d19190610de4565b92505b600760003373ffffffffffffffffffffffffffffffffffffffff1673ffffffffffffffffffffffffffffffffffffffff168152602001908152602001600020818154811061044b577f4e487b7100000000000000000000000000000000000000000000000000000000600052603260045260246000fd5b906000526020600020906002020160000154826104689190610de4565b9150808061047590610eb6565b915050610261565b50600061049661048e84606461089c565b6003546108b0565b905060006104b06104aa60015460646108b0565b8361089c565b836104bb9190610de4565b905060003373ffffffffffffffffffffffffffffffffffffffff16826040516104e390610cd4565b60006040518083038185875af1925050503d8060008114610520576040519150601f19603f3d011682016040523d82523d6000602084013e610525565b606091505b5050905080610569576040517f08c379a000000000000000000000000000000000000000000000000000000000815260040161056090610d64565b60405180910390fd5b61057f61057960015460646108b0565b8461089c565b600660008282546105909190610e3a565b9250508190555083600460008282546105a99190610e3a565b92505081905550600760003373ffffffffffffffffffffffffffffffffffffffff1673ffffffffffffffffffffffffffffffffffffffff16815260200190815260200160002060006105fb9190610b2d565b5050505050565b600260009054906101000a900473ffffffffffffffffffffffffffffffffffffffff1673ffffffffffffffffffffffffffffffffffffffff163373ffffffffffffffffffffffffffffffffffffffff1614610692576040517f08c379a000000000000000000000000000000000000000000000000000000000815260040161068990610d04565b60405180910390fd5b806000808473ffffffffffffffffffffffffffffffffffffffff1673ffffffffffffffffffffffffffffffffffffffff16815260200190815260200160002060006101000a81548160ff0219169083151502179055505050565b600760003373ffffffffffffffffffffffffffffffffffffffff1673ffffffffffffffffffffffffffffffffffffffff16815260200190815260200160002060405180604001604052803481526020014281525090806001815401808255809150506001900390600052602060002090600202016000909190919091506000820151816000015560208201518160010155505034600460008282546107919190610de4565b92505081905550565b60045481565b60065481565b600115156000803373ffffffffffffffffffffffffffffffffffffffff1673ffffffffffffffffffffffffffffffffffffffff16815260200190815260200160002060009054906101000a900460ff16151514610838576040517f08c379a000000000000000000000000000000000000000000000000000000000815260040161082f90610d44565b60405180910390fd5b346001600082825461084a9190610de4565b9250508190555034600660008282546108639190610de4565b9250508190555042600581905550600454600381905550565b60006020528060005260406000206000915054906101000a900460ff1681565b60006108a883836108cd565b905092915050565b60006108c583670de0b6b3a7640000846109f1565b905092915050565b60008060008019848609848602925082811083820303915050670de0b6b3a7640000811061093257806040517fd31b34020000000000000000000000000000000000000000000000000000000081526004016109299190610d84565b60405180910390fd5b600080670de0b6b3a764000086880991506706f05b59d3b1ffff8211905060008314156109a55780670de0b6b3a76400008581610998577f4e487b7100000000000000000000000000000000000000000000000000000000600052601260045260246000fd5b04019450505050506109eb565b807faccb18165bd6fe31ae1cf318dc5b51eee0e1ba569b88cd74c1773b91fac1066960016204000080600003040186851186030262040000858803041702019450505050505b92915050565b600080600080198587098587029250828110838203039150506000811415610a5357838281610a49577f4e487b7100000000000000000000000000000000000000000000000000000000600052601260045260246000fd5b0492505050610b26565b838110610a995780846040517f773cc18c000000000000000000000000000000000000000000000000000000008152600401610a90929190610d9f565b60405180910390fd5b60008486880990508281118203915080830392506000600186190186169050808604955080840493506001818260000304019050808302841793506000600287600302189050808702600203810290508087026002038102905080870260020381029050808702600203810290508087026002038102905080870260020381029050808502955050505050505b9392505050565b5080546000825560020290600052602060002090810190610b4e9190610b51565b50565b5b80821115610b7457600080820160009055600182016000905550600201610b52565b5090565b600081359050610b8781611047565b92915050565b600081359050610b9c8161105e565b92915050565b600060208284031215610bb457600080fd5b6000610bc284828501610b78565b91505092915050565b60008060408385031215610bde57600080fd5b6000610bec85828601610b78565b9250506020610bfd85828601610b8d565b9150509250929050565b610c1081610e80565b82525050565b6000610c23602983610dd3565b9150610c2e82610f2e565b604082019050919050565b6000610c46602483610dd3565b9150610c5182610f7d565b604082019050919050565b6000610c69603083610dd3565b9150610c7482610fcc565b604082019050919050565b6000610c8c600083610dc8565b9150610c978261101b565b600082019050919050565b6000610caf601083610dd3565b9150610cba8261101e565b602082019050919050565b610cce81610eac565b82525050565b6000610cdf82610c7f565b9150819050919050565b6000602082019050610cfe6000830184610c07565b92915050565b60006020820190508181036000830152610d1d81610c16565b9050919050565b60006020820190508181036000830152610d3d81610c39565b9050919050565b60006020820190508181036000830152610d5d81610c5c565b9050919050565b60006020820190508181036000830152610d7d81610ca2565b9050919050565b6000602082019050610d996000830184610cc5565b92915050565b6000604082019050610db46000830185610cc5565b610dc16020830184610cc5565b9392505050565b600081905092915050565b600082825260208201905092915050565b6000610def82610eac565b9150610dfa83610eac565b9250827fffffffffffffffffffffffffffffffffffffffffffffffffffffffffffffffff03821115610e2f57610e2e610eff565b5b828201905092915050565b6000610e4582610eac565b9150610e5083610eac565b925082821015610e6357610e62610eff565b5b828203905092915050565b6000610e7982610e8c565b9050919050565b60008115159050919050565b600073ffffffffffffffffffffffffffffffffffffffff82169050919050565b6000819050919050565b6000610ec182610eac565b91507fffffffffffffffffffffffffffffffffffffffffffffffffffffffffffffffff821415610ef457610ef3610eff565b5b600182019050919050565b7f4e487b7100000000000000000000000000000000000000000000000000000000600052601160045260246000fd5b7f46756e6374696f6e206f6e6c792063616c6c61626c6520627920636f6e74726160008201527f63742061646d696e2e0000000000000000000000000000000000000000000000602082015250565b7f596f752068617665206e6f206465706f73697473206f6e20796f75722062656860008201527f616c662e00000000000000000000000000000000000000000000000000000000602082015250565b7f4f6e6c79207465616d206d656d626572732061726520616c6c6f77656420746f60008201527f206465706f736974207265776172647300000000000000000000000000000000602082015250565b50565b7f5472616e73666572206661696c65642e00000000000000000000000000000000600082015250565b61105081610e6e565b811461105b57600080fd5b50565b61106781610e80565b811461107257600080fd5b5056fea26469706673582212203109a43b8df408e757f2625426851426778d4e7b625f150b8b646509bdea64b664736f6c63430008040033",
  "linkReferences": {},
  "deployedLinkReferences": {}
}